{
  "contractName": "CACCertificationContract",
  "abi": [
    {
      "constant": true,
      "inputs": [
        {
          "name": "",
          "type": "bytes32"
        }
      ],
      "name": "winnerMap",
      "outputs": [
        {
          "name": "firstName",
          "type": "string"
        },
        {
          "name": "lastName",
          "type": "string"
        },
        {
          "name": "mobileNumber",
          "type": "bytes32"
        }
      ],
      "payable": false,
      "stateMutability": "view",
      "type": "function"
    },
    {
      "constant": true,
      "inputs": [
        {
          "name": "",
          "type": "bytes32"
        }
      ],
      "name": "certificationMap",
      "outputs": [
        {
          "name": "certificationType",
          "type": "string"
        },
        {
          "name": "subject",
          "type": "string"
        },
        {
          "name": "awardDate",
          "type": "string"
        },
        {
          "name": "expiredDate",
          "type": "string"
        },
        {
          "name": "partner",
          "type": "string"
        }
      ],
      "payable": false,
      "stateMutability": "view",
      "type": "function"
    },
    {
      "constant": false,
      "inputs": [
        {
          "name": "certificationType",
          "type": "string"
        },
        {
          "name": "firstName",
          "type": "string"
        },
        {
          "name": "lastName",
          "type": "string"
        },
        {
          "name": "mobileNumber",
          "type": "bytes32"
        },
        {
          "name": "subject",
          "type": "string"
        },
        {
          "name": "awardDate",
          "type": "string"
        },
        {
          "name": "expiredDate",
          "type": "string"
        },
        {
          "name": "partner",
          "type": "string"
        }
      ],
      "name": "issueCertification",
      "outputs": [],
      "payable": false,
      "stateMutability": "nonpayable",
      "type": "function"
    },
    {
      "constant": true,
      "inputs": [
        {
          "name": "mobileNumber",
          "type": "bytes32"
        }
      ],
      "name": "getCertification",
      "outputs": [
        {
          "name": "",
          "type": "string"
        },
        {
          "name": "",
          "type": "string"
        },
        {
          "name": "",
          "type": "string"
        },
        {
          "name": "",
          "type": "string"
        },
        {
          "name": "",
          "type": "string"
        }
      ],
      "payable": false,
      "stateMutability": "view",
      "type": "function"
    },
    {
      "constant": true,
      "inputs": [
        {
          "name": "mobileNumber",
          "type": "bytes32"
        }
      ],
      "name": "getWinner",
      "outputs": [
        {
          "name": "",
          "type": "string"
        },
        {
          "name": "",
          "type": "string"
        },
        {
          "name": "",
          "type": "bytes32"
        }
      ],
      "payable": false,
      "stateMutability": "view",
      "type": "function"
    }
  ],
  "bytecode": "0x608060405234801561001057600080fd5b5061174c806100206000396000f3fe60806040526004361061006d576000357c0100000000000000000000000000000000000000000000000000000000900463ffffffff1680631e5f9149146100725780631fb25f071461019957806322bcda3c146103fd5780632d5064bc1461085a57806331a3fc6e14610981575b600080fd5b34801561007e57600080fd5b506100ab6004803603602081101561009557600080fd5b8101908080359060200190929190505050610be5565b604051808060200180602001848152602001838103835286818151815260200191508051906020019080838360005b838110156100f55780820151818401526020810190506100da565b50505050905090810190601f1680156101225780820380516001836020036101000a031916815260200191505b50838103825285818151815260200191508051906020019080838360005b8381101561015b578082015181840152602081019050610140565b50505050905090810190601f1680156101885780820380516001836020036101000a031916815260200191505b509550505050505060405180910390f35b3480156101a557600080fd5b506101d2600480360360208110156101bc57600080fd5b8101908080359060200190929190505050610d53565b60405180806020018060200180602001806020018060200186810386528b818151815260200191508051906020019080838360005b83811015610222578082015181840152602081019050610207565b50505050905090810190601f16801561024f5780820380516001836020036101000a031916815260200191505b5086810385528a818151815260200191508051906020019080838360005b8381101561028857808201518184015260208101905061026d565b50505050905090810190601f1680156102b55780820380516001836020036101000a031916815260200191505b50868103845289818151815260200191508051906020019080838360005b838110156102ee5780820151818401526020810190506102d3565b50505050905090810190601f16801561031b5780820380516001836020036101000a031916815260200191505b50868103835288818151815260200191508051906020019080838360005b83811015610354578082015181840152602081019050610339565b50505050905090810190601f1680156103815780820380516001836020036101000a031916815260200191505b50868103825287818151815260200191508051906020019080838360005b838110156103ba57808201518184015260208101905061039f565b50505050905090810190601f1680156103e75780820380516001836020036101000a031916815260200191505b509a505050505050505050505060405180910390f35b34801561040957600080fd5b50610858600480360361010081101561042157600080fd5b810190808035906020019064010000000081111561043e57600080fd5b82018360208201111561045057600080fd5b8035906020019184600183028401116401000000008311171561047257600080fd5b91908080601f016020809104026020016040519081016040528093929190818152602001838380828437600081840152601f19601f820116905080830192505050505050509192919290803590602001906401000000008111156104d557600080fd5b8201836020820111156104e757600080fd5b8035906020019184600183028401116401000000008311171561050957600080fd5b91908080601f016020809104026020016040519081016040528093929190818152602001838380828437600081840152601f19601f8201169050808301925050505050505091929192908035906020019064010000000081111561056c57600080fd5b82018360208201111561057e57600080fd5b803590602001918460018302840111640100000000831117156105a057600080fd5b91908080601f016020809104026020016040519081016040528093929190818152602001838380828437600081840152601f19601f820116905080830192505050505050509192919290803590602001909291908035906020019064010000000081111561060d57600080fd5b82018360208201111561061f57600080fd5b8035906020019184600183028401116401000000008311171561064157600080fd5b91908080601f016020809104026020016040519081016040528093929190818152602001838380828437600081840152601f19601f820116905080830192505050505050509192919290803590602001906401000000008111156106a457600080fd5b8201836020820111156106b657600080fd5b803590602001918460018302840111640100000000831117156106d857600080fd5b91908080601f016020809104026020016040519081016040528093929190818152602001838380828437600081840152601f19601f8201169050808301925050505050505091929192908035906020019064010000000081111561073b57600080fd5b82018360208201111561074d57600080fd5b8035906020019184600183028401116401000000008311171561076f57600080fd5b91908080601f016020809104026020016040519081016040528093929190818152602001838380828437600081840152601f19601f820116905080830192505050505050509192919290803590602001906401000000008111156107d257600080fd5b8201836020820111156107e457600080fd5b8035906020019184600183028401116401000000008311171561080657600080fd5b91908080601f016020809104026020016040519081016040528093929190818152602001838380828437600081840152601f19601f8201169050808301925050505050505091929192905050506110a5565b005b34801561086657600080fd5b506108936004803603602081101561087d57600080fd5b81019080803590602001909291905050506111f3565b604051808060200180602001848152602001838103835286818151815260200191508051906020019080838360005b838110156108dd5780820151818401526020810190506108c2565b50505050905090810190601f16801561090a5780820380516001836020036101000a031916815260200191505b50838103825285818151815260200191508051906020019080838360005b83811015610943578082015181840152602081019050610928565b50505050905090810190601f1680156109705780820380516001836020036101000a031916815260200191505b509550505050505060405180910390f35b34801561098d57600080fd5b506109ba600480360360208110156109a457600080fd5b810190808035906020019092919050505061134d565b60405180806020018060200180602001806020018060200186810386528b818151815260200191508051906020019080838360005b83811015610a0a5780820151818401526020810190506109ef565b50505050905090810190601f168015610a375780820380516001836020036101000a031916815260200191505b5086810385528a818151815260200191508051906020019080838360005b83811015610a70578082015181840152602081019050610a55565b50505050905090810190601f168015610a9d5780820380516001836020036101000a031916815260200191505b50868103845289818151815260200191508051906020019080838360005b83811015610ad6578082015181840152602081019050610abb565b50505050905090810190601f168015610b035780820380516001836020036101000a031916815260200191505b50868103835288818151815260200191508051906020019080838360005b83811015610b3c578082015181840152602081019050610b21565b50505050905090810190601f168015610b695780820380516001836020036101000a031916815260200191505b50868103825287818151815260200191508051906020019080838360005b83811015610ba2578082015181840152602081019050610b87565b50505050905090810190601f168015610bcf5780820380516001836020036101000a031916815260200191505b509a505050505050505050505060405180910390f35b60608060008060016000868152602001908152602001600020905080600001816001018260020154828054600181600116156101000203166002900480601f016020809104026020016040519081016040528092919081815260200182805460018160011615610100020316600290048015610ca25780601f10610c7757610100808354040283529160200191610ca2565b820191906000526020600020905b815481529060010190602001808311610c8557829003601f168201915b50505050509250818054600181600116156101000203166002900480601f016020809104026020016040519081016040528092919081815260200182805460018160011615610100020316600290048015610d3e5780601f10610d1357610100808354040283529160200191610d3e565b820191906000526020600020905b815481529060010190602001808311610d2157829003601f168201915b50505050509150935093509350509193909250565b6060806060806060600080600088815260200190815260200160002090508060000181600101826002018360030184600401848054600181600116156101000203166002900480601f016020809104026020016040519081016040528092919081815260200182805460018160011615610100020316600290048015610e1a5780601f10610def57610100808354040283529160200191610e1a565b820191906000526020600020905b815481529060010190602001808311610dfd57829003601f168201915b50505050509450838054600181600116156101000203166002900480601f016020809104026020016040519081016040528092919081815260200182805460018160011615610100020316600290048015610eb65780601f10610e8b57610100808354040283529160200191610eb6565b820191906000526020600020905b815481529060010190602001808311610e9957829003601f168201915b50505050509350828054600181600116156101000203166002900480601f016020809104026020016040519081016040528092919081815260200182805460018160011615610100020316600290048015610f525780601f10610f2757610100808354040283529160200191610f52565b820191906000526020600020905b815481529060010190602001808311610f3557829003601f168201915b50505050509250818054600181600116156101000203166002900480601f016020809104026020016040519081016040528092919081815260200182805460018160011615610100020316600290048015610fee5780601f10610fc357610100808354040283529160200191610fee565b820191906000526020600020905b815481529060010190602001808311610fd157829003601f168201915b50505050509150808054600181600116156101000203166002900480601f01602080910402602001604051908101604052809291908181526020018280546001816001161561010002031660029004801561108a5780601f1061105f5761010080835404028352916020019161108a565b820191906000526020600020905b81548152906001019060200180831161106d57829003601f168201915b50505050509050955095509550955095505091939590929450565b60a0604051908101604052808981526020018581526020018481526020018381526020018281525060008087815260200190815260200160002060008201518160000190805190602001906110fb92919061167b565b50602082015181600101908051906020019061111892919061167b565b50604082015181600201908051906020019061113592919061167b565b50606082015181600301908051906020019061115292919061167b565b50608082015181600401908051906020019061116f92919061167b565b50905050606060405190810160405280888152602001878152602001868152506001600087815260200190815260200160002060008201518160000190805190602001906111be92919061167b565b5060208201518160010190805190602001906111db92919061167b565b50604082015181600201559050505050505050505050565b6001602052806000526040600020600091509050806000018054600181600116156101000203166002900480601f01602080910402602001604051908101604052809291908181526020018280546001816001161561010002031660029004801561129f5780601f106112745761010080835404028352916020019161129f565b820191906000526020600020905b81548152906001019060200180831161128257829003601f168201915b505050505090806001018054600181600116156101000203166002900480601f01602080910402602001604051908101604052809291908181526020018280546001816001161561010002031660029004801561133d5780601f106113125761010080835404028352916020019161133d565b820191906000526020600020905b81548152906001019060200180831161132057829003601f168201915b5050505050908060020154905083565b6000602052806000526040600020600091509050806000018054600181600116156101000203166002900480601f0160208091040260200160405190810160405280929190818152602001828054600181600116156101000203166002900480156113f95780601f106113ce576101008083540402835291602001916113f9565b820191906000526020600020905b8154815290600101906020018083116113dc57829003601f168201915b505050505090806001018054600181600116156101000203166002900480601f0160208091040260200160405190810160405280929190818152602001828054600181600116156101000203166002900480156114975780601f1061146c57610100808354040283529160200191611497565b820191906000526020600020905b81548152906001019060200180831161147a57829003601f168201915b505050505090806002018054600181600116156101000203166002900480601f0160208091040260200160405190810160405280929190818152602001828054600181600116156101000203166002900480156115355780601f1061150a57610100808354040283529160200191611535565b820191906000526020600020905b81548152906001019060200180831161151857829003601f168201915b505050505090806003018054600181600116156101000203166002900480601f0160208091040260200160405190810160405280929190818152602001828054600181600116156101000203166002900480156115d35780601f106115a8576101008083540402835291602001916115d3565b820191906000526020600020905b8154815290600101906020018083116115b657829003601f168201915b505050505090806004018054600181600116156101000203166002900480601f0160208091040260200160405190810160405280929190818152602001828054600181600116156101000203166002900480156116715780601f1061164657610100808354040283529160200191611671565b820191906000526020600020905b81548152906001019060200180831161165457829003601f168201915b5050505050905085565b828054600181600116156101000203166002900490600052602060002090601f016020900481019282601f106116bc57805160ff19168380011785556116ea565b828001600101855582156116ea579182015b828111156116e95782518255916020019190600101906116ce565b5b5090506116f791906116fb565b5090565b61171d91905b80821115611719576000816000905550600101611701565b5090565b9056fea165627a7a723058205db279dad10c786ee522d70cb762acfee5871afebe6958ebd36070ef5c98f5db0029",
  "source": "pragma solidity >=0.4.20;\n\ncontract CACCertificationContract {\n    mapping(bytes32 => Certification) public certificationMap;\n    mapping(bytes32 => Winner) public winnerMap;\n\n    struct Winner {\n        string firstName;\n        string lastName;\n        bytes32 mobileNumber;\n    }\n\n    struct Certification {\n        string certificationType;\n        string subject;\n        string awardDate;\n        string expiredDate;\n        string partner;\n    }\n\n    function issueCertification(string memory certificationType, string memory firstName, string memory lastName, bytes32 mobileNumber, string memory subject, string memory awardDate, string memory expiredDate, string memory partner) public {\n        certificationMap[mobileNumber] = Certification(certificationType, subject, awardDate, expiredDate, partner);\n        winnerMap[mobileNumber] = Winner(firstName, lastName, mobileNumber);\n    }\n\n    function getCertification(bytes32 mobileNumber) view public returns(string memory, string memory, string memory, string memory, string memory) {\n        Certification storage cert = certificationMap[mobileNumber];\n        return (cert.certificationType, cert.subject, cert.awardDate, cert.expiredDate, cert.partner);\n    }\n\n    function getWinner(bytes32 mobileNumber) view public returns(string memory, string memory, bytes32) {\n        Winner storage winner = winnerMap[mobileNumber];\n        return (winner.firstName, winner.lastName, bytes32(winner.mobileNumber));\n    }\n}",
  "sourcePath": "/Users/rpwang/Desktop/Blockchain/CertificationOnWechat/CertificationSmartContract/contracts/CACCertificationContract.sol",
  "compiler": {
    "name": "solc",
    "version": "0.5.0+commit.1d4f565a.Emscripten.clang"
  },
  "schemaVersion": "3.0.1",
  "updatedAt": "2019-01-13T15:05:48.098Z",
  "devdoc": {
    "methods": {}
  },
  "userdoc": {
    "methods": {}
  }
}